S0160000454945333130355F4C6162315F412E7372656333
S11300000C9434000C943E000C943E000C943E007E
S11300100C943E000C943E000C943E000C943E0064
S11300200C943E000C943E000C943E000C943E0054
S11300300C943E000C943E000C943E000C943E0044
S11300400C943E000C943E000C943E000C943E0034
S11300500C943E000C943E000C943E000C943E0024
S11300600C943E000C943E0011241FBECFEFD8E048
S1130070DEBFCDBF0E9449000C944D000C940000DB
S113008083EA84BD8CE085BD8CE787BD8EE388BDA3
S11100900895559A0E944000FFCFF894FFCFC8
S9030000FC
