:100000000C9434000C943E000C943E000C943E0082
:100010000C943E000C943E000C943E000C943E0068
:100020000C943E000C943E000C943E000C943E0058
:100030000C943E000C943E000C943E000C943E0048
:100040000C943E000C943E000C943E000C943E0038
:100050000C943E000C943E000C943E000C943E0028
:100060000C943E000C943E0011241FBECFEFD8E04C
:10007000DEBFCDBF0E9440000C9468000C940000CD
:100080008FEF8AB975E56AEA7BB940E550E00BC0AD
:100090000197F1F72150310919F08CEF90E0F8CF7A
:1000A0004150510919F02CEF30E0F7CF6BB940E522
:1000B00050E00BC00197F1F72150310919F08CEF96
:1000C00090E0F8CF41505109F9F22CEF30E0F7CF32
:0400D000F894FFCFD2
:00000001FF
