S0160000454945333130355F4C6162315F332E7372656341
S11300000C9434000C943E000C943E000C943E007E
S11300100C943E000C943E000C943E000C943E0064
S11300200C943E000C943E000C943E000C943E0054
S11300300C943E000C943E000C943E000C943E0044
S11300400C943E000C943E000C943E000C943E0034
S11300500C943E000C943E000C943E000C943E0024
S11300600C943E000C943E0011241FBECFEFD8E048
S1130070DEBFCDBF0E9440000C944B000C940000E6
S11300808FEF8AB9209885B18FEF189902C01BB8F9
S10D0090FCCF8BB9FACFF894FFCF30
S9030000FC
