S0160000454945333130355F4C6162345F422E737265632F
S11300000C9434000C9449000C9449000C9449005D
S11300100C9449000C9449000C9449000C94490038
S11300200C9449000C9449000C9449000C94490028
S11300300C9449000C9449000C9449000C94490018
S11300400C9449000C9449000C9449000C94490008
S11300500C9449000C9449000C9449000C944900F8
S11300600C9449000C94490011241FBECFEFD8E032
S1130070DEBFCDBF11E0A0E0B1E0E6EDF1E002C0EB
S113008005900D92A034B107D9F70E94CF000C94CB
S1130090E9000C94000088E18093C10086E080931D
S11300A0C2008FEC8093C4000895E0ECF0E09081EE
S11300B095FFFDCF8093C6000895DC01E0ECF0E0ED
S11300C090819923ECF78091C6008C9308950F9347
S11300D01F93CF93DF93CDB7DEB7A0970FB6F894F5
S11300E0DEBF0FBECDBF8EE0E0E0F1E0DE01119691
S11300F001900D928A95E1F7FE013F9682E1DF01BE
S11301001D928A95E9F78981882351F08E010E5F4B
S11301101F4F0E945500F80181918F018111F9CF81
S1130120A0960FB6F894DEBF0FBECDBFDF91CF917E
S11301301F910F9108950F931F93CF93DF93CDB722
S1130140DEB7A0970FB6F894DEBF0FBECDBF85E033
S1130150E0E2F1E0DE01119601900D928A95E1F75B
S1130160FE0136968BE1DF011D928A95E9F78981BC
S1130170882351F08E010E5F1F4F0E945500F80135
S113018081918F018111F9CFA0960FB6F894DEBF4B
S11301900FBECDBFDF91CF911F910F910895CF93E3
S11301A0DF931F92CDB7DEB70E944B000E94670019
S11301B0CE0101960E945D0089818834C9F7CE0181
S11301C001960E945D008981893691F70E949B0007
S10901D0EFCFF894FFCF0D
S11301D657652061726520726561647921000000AB
S11301E60000000000000000000000000000000005
S11301F642796521000000000000000000000000B4
S113020600000000000000000000000000000000E4
S9030000FC
