:100000000C9434000C943E000C943E000C943E0082
:100010000C943E000C943E000C943E000C943E0068
:100020000C943E000C943E000C943E000C943E0058
:100030000C943E000C943E000C943E000C943E0048
:100040000C943E000C943E000C943E000C943E0038
:100050000C943E000C943E000C943E000C943E0028
:100060000C943E000C943E0011241FBECFEFD8E04C
:10007000DEBFCDBF0E945C000C9486000C94000093
:1000800088E18093C10086E08093C20087E6809378
:10009000C4000895E0ECF0E0908195FFFDCF8093DF
:1000A000C6000895DC01E0ECF0E090819923ECF7C4
:1000B0008091C6008C930895CF93DF931F92CDB7A4
:1000C000DEB70E94400019820F2EF0ECEF2EF12CCB
:1000D000F02D81E60E944A00F70180818823CCF749
:1000E000CE0101960E945200D9800AE010E0898179
:1000F0000E944A0001501109D1F71982CE010196E0
:100100000E9452008981D812F9CFE3CFF894FFCF33
:00000001FF
