S0160000454945333130355F4C6162335F412E7372656331
S11300000C943C000C944E000C944E000C944E0046
S11300100C944E000C944E000C944E000C944E0024
S11300200C944E000C944E000C944E000C9422013F
S11300300C944E000C944E000C9410010C944E0041
S11300400C944E000C944E000C944E000C944E00F4
S11300500C944E000C944E000C944E000C944E00E4
S11300600C944E000C944E00720084009200A00088
S1130070AE00BB00D500E20011241FBECFEFD8E0D4
S1130080DEBFCDBF21E0A0E0B1E001C01D92A430ED
S1130090B207E1F70E94EF000C943F010C940000BA
S11300A010920101109200018091020190910301CC
S11300B08730910529F410920301109202010895EA
S11300C0019690930301809302010895E091020147
S11300D0F0910301E830F10508F080C0EC5CFF4FBB
S11300E00C9439018091000190910101499729F004
S11300F0459A449881E285B90895459A449881E1E6
S113010085B90E94500008958091000190910101E9
S1130110059709F063C0459A449889E085B90E941F
S1130120500008958091000190910101059709F014
S113013055C0459A44988BE085B90E9450000895B3
S11301408091000190910101059709F047C0449AFC
S113015045988CE085B90E94500008958091000173
S1130160909101014997D1F5449A45988CE085B95D
S11301700E94500008958091000190910101853002
S1130180910539F4459A449889E085B90E94500054
S1130190089580FD05C0449A45988AE085B908957C
S11301A0449845988AE085B908958091000190911A
S11301B00101059799F4459A449889E185B90E940B
S11301C0500008958091000190910101059731F448
S11301D0459A449881E285B90E94500008958FE3BE
S11301E084B981E387B91AB815B818B880E18BB916
S11301F082E087BD84BD97E095BD9CE09093890023
S113020095E390938800109280009DE09093810084
S113021080936E0080936F0078940E946600FDCFF7
S11302201F920F920FB60F9211248F939F9398B140
S113023081E0892788B99F918F910F900FBE0F900D
S11302401F9018951F920F920FB60F9211248F933F
S11302509F93809100019091010101969093010177
S1130260809300019F918F910F900FBE0F901F906C
S11302701895EE0FFF1F0590F491E02D0994F89462
S1050280FFCFAA
S9030000FC
