S0170000454945333130355F4C6162345F44312E73726563FB
S11300000C9434000C9451000C9451000C94510045
S11300100C9451000C9451000C9451000C94510018
S11300200C9451000C9451000C9451000C94510008
S11300300C9451000C9451000C9451000C945100F8
S11300400C9451000C9451000C94AE000C94530089
S11300500C9451000C9451000C9451000C945100D8
S11300600C9451000C94510011241FBECFEFD8E022
S1130070DEBFCDBF11E0A0E0B1E0EAEFF1E002C0E5
S113008005900D92A234B107D9F721E0A2E4B1E0C2
S113009001C01D92AC34B207E1F70E94F7000C9442
S11300A0FB000C9400001F920F920FB60F921124C4
S11300B08F939F93EF93FF938091460181111CC00E
S11300C0E0914901F0914A01EE5DFE4F808181117A
S11300D008C081E08093460110924A0110924901C0
S11300E00FC08093C6008091490190914A01019606
S11300F090934A018093490180914601813029F50A
S113010080914501813009F5E0914901F0914A015E
S1130110EE5FFE4F808181110DC010924A01109252
S1130120490180E091E0E2E4F1E080838183109270
S113013045010BC08093C6008091490190914A010A
S1130140019690934A0180934901FF91EF919F9109
S11301508F910F900FBE0F901F9018951F920F92C2
S11301600FB60F9211242F933F938F939F93EF9386
S1130170FF938091C60080934B01209147013091F9
S11301804801F901EE5BFE4F908191111BC0883448
S113019059F4232BB9F48093420181E090E09093C9
S11301A04801809347010EC0893661F4213031053E
S11301B049F480934301109248011092470181E071
S11301C080934501FF91EF919F918F913F912F91E2
S11301D00F900FBE0F901F90189588EB8093C1006D
S11301E086E08093C2008FEC8093C40008950E943F
S10D01F0ED007894FFCFF894FFCFE0
S11301FA00004279652100000000000000000000B0
S113020A00000000000000000000000000000000E0
S113021A0000576520617265207265616479210066
S113022A00000000000000000000000000000000C0
S105023A0000BE
S9030000FC
