S0160000454945333130355F4C6162315F452E737265632F
S11300000C9434000C9451000C9451000C94510045
S11300100C9451000C9451000C9451000C94510018
S11300200C9451000C9451000C9451000C94510008
S11300300C9451000C9451000C9451000C945100F8
S11300400C9451000C9451000C94E9000C945B0145
S11300500C9451000C9451000C9451000C945100D8
S11300600C9451000C94510011241FBECFEFD8E022
S1130070DEBFCDBF11E0A0E0B1E0E8ECF3E002C0E8
S113008005900D92AE31B107D9F721E0AEE1B1E0B0
S113009001C01D92AE34B207E1F70E94CA010C946C
S11300A0E2010C94000083EA84BD8CE085BD8CE7FA
S11300B087BD18BC089588EB8093C10086E08093C7
S11300C0C20087E68093C40008951092800084E4FF
S11300D08093810080E286BBB59BFECF9091860021
S11300E080E286BB84E080938100B59BFECF809143
S11300F0860020E226BB891B08950E946500482FD4
S113010050E050932101409320014436510520F5DD
S1130110E4E2F1E09A01ADECBCEC0E94D3019695C7
S11301208795969587959695879520E3280F208344
S11301309C01220F331F880F991F880F991F880F66
S1130140991F820F931F481B590B405D41838AE01E
S113015082838DE0838330C0E4E2F1E09A01369536
S1130160279536952795ABE7B4E10E94D301969580
S11301708795805D80839A01ADECBCEC0E94D3012D
S113018096958795969587959695879520E3280F5C
S113019021839C01220F331F880F991F880F991FF9
S11301A0880F991F820F931F481B590B405D428390
S11301B08AE083838DE0848380911E0190911F01E6
S11301C0019731F481E090E09093430180934201E0
S11301D008951F920F920FB60F9211242F933F93FD
S11301E08F939F938091C60080934D01982F9F7D9C
S11301F09D3459F480911E0190911F0121E08227C2
S113020090931F0180931E014DC021E030E0309394
S113021045012093440180934A018D30A1F58091DA
S11302204C01811109C081E090E0909349018093D1
S1130230480110924D0136C090914B0191110DC0AF
S1130240805388BD81E090E09093470180934601FC
S113025010924C0110924D0125C0990F9056292FF0
S1130260220F220F920F8053890F88BD81E090E006
S1130270909347018093460110924C0110924B01D8
S113028010924D010FC090914C01911105C08093C3
S11302904C0110924D0106C090934B0180934C0188
S11302A010924D019F918F913F912F910F900FBE0E
S11302B00F901F9018951F920F920FB60F92112452
S11302C08F939F93EF93FF938091480190914901FD
S11302D00197F1F4E0912201F0912301E050FF4FE6
S11302E08081882361F08093C600809122019091DF
S11302F023010196909323018093220142C010921E
S1130300230110922201109249011092480139C030
S11303108091440190914501019781F480914A01B3
S11303208093C60080914A018D3019F48AE080934D
S1130330C600109245011092440123C080914201ED
S1130340909143010197E9F4E0912201F091230196
S1130350EC5DFE4F8081882361F08093C60080911C
S1130360220190912301019690932301809322010D
S113037008C010922301109222011092430110929E
S11303804201FF91EF919F918F910F900FBE0F90BB
S11303901F901895559A0E945B000E945300789410
S11303A00E947D00FDCFA29FB001B39FC001A39F17
S11303B0700D811D1124911DB29F700D811D11249A
S10B03C0911D0895F894FFCF8C
S11303C84E6F20496E7075742120496E70757420C3
S11103D8416761696E0A000000000000000029
S9030000FC
