:100000000C9434000C943E000C943E000C943E0082
:100010000C943E000C943E000C943E000C943E0068
:100020000C943E000C943E000C943E000C943E0058
:100030000C943E000C943E000C943E000C943E0048
:100040000C943E000C943E000C943E000C943E0038
:100050000C943E000C943E000C943E000C943E0028
:100060000C943E000C943E0011241FBECFEFD8E04C
:10007000DEBFCDBF0E94A7000C94CC000C94000002
:1000800082EC8093850087EF80938400109280003B
:1000900085E080938100B09BFECF1092810081E0CB
:1000A00086BB08950E9440000E9440000E944000CC
:1000B0000E9440000E944000089583EF80938500D5
:1000C0008BEC809384001092800085E08093810007
:1000D000B09BFECF1092810081E086BB089580E145
:1000E00088B981E285B9089580E188B981E185B94F
:1000F000089580E188B989E085B9089580E188B9DB
:100100008BE085B9089580E288B98CE085B90895BF
:10011000CF93C0E2C8B98AE085B90E945D0018B8E3
:100120000E945D00C8B90E945D0018B80E945D0081
:10013000C8B90E945D00CF91089580E188B989E037
:1001400085B9089580E188B989E185B908958FE37B
:1001500084B980E387B915B818B80E946F000E946F
:1001600052000E9474000E9440000E9479000E9488
:1001700040000E947E000E9440000E9483000E9476
:1001800052000E9488000E949D000E9440000E9430
:0C019000A2000E944000E1CFF894FFCFD5
:00000001FF
