:100000000C9434000C9451000C9453000C94510047
:100010000C9451000C9451000C9451000C9451001C
:100020000C9451000C9451000C9451000C948B00D2
:100030000C9451000C9451000C9451000C945100FC
:100040000C9451000C9451000C9451000C949A00A3
:100050000C9451000C9451000C9451000C945100DC
:100060000C9451000C94510011241FBECFEFD8E026
:10007000DEBFCDBF11E0A0E0B1E0E0E3F2E002C0FE
:1000800005900D92AC30B107D9F721E0ACE0B1E0BA
:1000900001C01D92AF30B207E1F70E940E010C942F
:1000A00016010C9400001F920F920FB60F921124AC
:1000B0008F93EF93FF9380910A01813091F4E1E8EF
:1000C000F0E010828AE78093890081E180938800C4
:1000D00082E080930A0181E080930E018DE08083AD
:1000E00012C0823081F4E1E8F0E010828DE3809369
:1000F000890089E08093880081E080930A018093E1
:100100000E018DE08083FF91EF918F910F900FBED4
:100110000F901F9018951F920F920FB60F921124F7
:100120008F9381E080930E018F910F900FBE0F90FF
:100130001F9018951F920F920FB60F9211248F9354
:100140009F93EF93FF9380910A01813001F5809195
:100150000E018130E9F5E0910C01F0910D01EB5FAA
:10016000FE4F8081882361F08093C60080910C014E
:1001700090910D01019690930D0180930C0128C080
:1001800010920E0110920D0110920C0121C08230CC
:10019000F9F480910E018130D9F4E0910C01F091D5
:1001A0000D01E050FF4F8081882361F08093C600ED
:1001B00080910C0190910D01019690930D01809317
:1001C0000C0106C010920E0110920D0110920C014C
:1001D000FF91EF919F918F910F900FBE0F901F9005
:1001E000189588EB8093C10086E08093C20087E673
:1001F0008093C40008958DE38093890088E0809304
:1002000088008DE08093810082E080936F000895E4
:100210005B9AE99A8CE08093690008950E94F1004E
:100220000E94FB000E9408017894FFCFF894FFCF52
:0C023000494E5431003342000000010030
:00000001FF
