:100000000C9434000C943E000C943E000C943E0082
:100010000C943E000C943E000C943E000C943E0068
:100020000C943E000C943E000C943E000C943E0058
:100030000C943E000C943E000C943E000C943E0048
:100040000C943E000C943E000C943E000C943E0038
:100050000C943E000C943E000C943E000C943E0028
:100060000C943E000C943E0011241FBECFEFD8E04C
:10007000DEBFCDBF0E9440000C9484000C940000B1
:10008000CF93DF93CDB7DEB787E290E021E0FC01AC
:1000900020838AE290E0FC0110828BE290E020E174
:1000A000FC01208388E290E0FC01108287E490E06C
:1000B00022E0FC01208384E490E022E0FC01208324
:1000C00085E490E027E0FC01208386E490E0FC01D9
:1000D0001082000085E390E0FC018081882F90E091
:1000E00082709927892BB1F385E390E022E0FC012F
:1000F000208388E290E028E230E0F901308121E0BD
:0C0100002327FC012083E5CFF894FFCFFB
:00000001FF
