S0160000454945333130355F4C6162345F412E7372656330
S11300000C9434000C943E000C943E000C943E007E
S11300100C943E000C943E000C943E000C943E0064
S11300200C943E000C943E000C943E000C943E0054
S11300300C943E000C943E000C943E000C943E0044
S11300400C943E000C943E000C943E000C943E0034
S11300500C943E000C943E000C943E000C943E0024
S11300600C943E000C943E0011241FBECFEFD8E048
S1130070DEBFCDBF0E945C000C946B000C940000AA
S113008088E18093C10086E08093C2008FEC809366
S1130090C4000895E0ECF0E0908195FFFDCF8093DB
S11300A0C6000895DC01E0ECF0E090819923ECF7C0
S11300B08091C6008C930895CF93DF931F92CDB7A0
S11300C0DEB70E944000CE0101960E945200898151
S10D00D00E944A00F8CFF894FFCF15
S9030000FC
