S0160000454945333130355F4C6162315F342E7372656340
S11300000C9434000C943E000C943E000C943E007E
S11300100C943E000C943E000C943E000C943E0064
S11300200C943E000C943E000C943E000C943E0054
S11300300C943E000C943E000C943E000C943E0044
S11300400C943E000C943E000C943E000C943E0034
S11300500C943E000C943E000C943E000C943E0024
S11300600C943E000C943E0011241FBECFEFD8E048
S1130070DEBFCDBF0E9440000C9468000C940000C9
S11300808FEF8AB9209885B140E050E060E070E0DD
S1130090FFEFE1E0A0E001C0A90180E492E0019754
S11300A0F1F783B1282F217030E024173507A9F325
S11300B06115710511F01BB801C0FBB9211531059B
S11300C059F78E2F672B09F08A2F682F70E0E4CF41
S10700D0F894FFCFCE
S9030000FC
