S0160000454945333130355F4C6162335F422E7372656330
S11300000C943C000C940F010C944E000C944E0084
S11300100C944E000C944E000C944E000C944E0024
S11300200C944E000C944E000C944E000C9432012F
S11300300C944E000C944E000C944E000C944E0004
S11300400C944E000C944E000C944E000C944E00F4
S11300500C944E000C944E000C944E000C944E00E4
S11300600C944E000C944E00720084009200A00088
S1130070AE00BB00D500E20011241FBECFEFD8E0D4
S1130080DEBFCDBF21E0A0E0B1E001C01D92A630EB
S1130090B207E1F70E94EF000C944F010C940000AA
S11300A010920301109202018091040190910501C4
S11300B08730910529F410920501109204010895E6
S11300C0019690930501809304010895E091040141
S11300D0F0910501E830F10508F080C0EC5CFF4FB9
S11300E00C9449018091020190910301499729F0F0
S11300F0459A449881E285B90895459A449881E1E6
S113010085B90E94500008958091020190910301E5
S1130110059709F063C0459A449889E085B90E941F
S1130120500008958091020190910301059709F010
S113013055C0459A44988BE085B90E9450000895B3
S11301408091020190910301059709F047C0449AF8
S113015045988CE085B90E94500008958091020171
S1130160909103014997D1F5449A45988CE085B95B
S11301700E945000089580910201909103018530FE
S1130180910539F4459A449889E085B90E94500054
S1130190089580FD05C0449A45988AE085B908957C
S11301A0449845988AE085B9089580910201909118
S11301B00301059799F4459A449889E185B90E9409
S11301C0500008958091020190910301059731F444
S11301D0459A449881E285B90E94500008958FE3BE
S11301E084B981E387B91AB815B818B884E08BB913
S11301F08CE08093890085E38093880010928000CE
S11302008DE08093810082E080936F0081E08DBB5C
S113021083E08093690078940E946600FDCF1F926A
S11302200F920FB60F9211248F939F938091000128
S1130230909101018230910531F001969093010172
S11302408093000108C098B181E0892788B9109291
S11302500101109200019F918F910F900FBE0F909A
S11302601F9018951F920F920FB60F9211248F931F
S11302709F93809102019091030101969093030151
S1130280809302019F918F910F900FBE0F901F904A
S11302901895EE0FFF1F0590F491E02D0994F89442
S10502A0FFCF8A
S9030000FC
